:020000040000FA
:1000000000308A007C28FF3F0D2882075234453497
:1000100056342034413441340034D000030E83017F
:10002000D3000A08D4005108D2000408D5005608AD
:10003000D7005808DC005908DD005A08DE005B08CC
:10004000DF008B1E26280B1D26283C2083015F081D
:10005000DB005E08DA005D08D9005C08D8005708AC
:10006000D6005208D10054088A0055088400530E67
:100070008300D00E500E09008E30831281072608AF
:10008000250403194728A5080319A603A503240876
:10009000230403194F28A3080319A403A303A01DD5
:1000A0005428071187107A28A11E6128A11C5A28FC
:1000B00007155B280711211D5F288714602887100A
:1000C0007A28A11F7028A11C682804308706692897
:1000D0000711211D6E28023087066F2887107A28A5
:1000E000A11C7428071575280711211D792887146C
:1000F0007A2887100B110800892023082404031D87
:1001000088280830A3000030A4001B21C420F6205A
:100110007D280430831685008312850138308316CC
:1001200087008312870108308316810060308B00BE
:100130008312900189309F00503083169F00043055
:10014000910083128C0183168C0107308312990071
:100150003321CE000408CF00A01420152010A011D8
:10016000A114211121122113A113A201A501A6019D
:10017000A301A401A210AE01A701A801A901AA012F
:100180008B160B118B1708008312071EC9288719BD
:10019000D1282218D128B830A5000130A600221499
:1001A0000800221C080025082604031D0800071A61
:1001B000DF280130A0068312071EDB28F4288719E8
:1001C000F428A01CE828201DE828A0142011F128FC
:1001D000201DED28A0142015F128A01CF128A01046
:1001E00020158312871DF128221008008312871E14
:1001F000FD282018FD28A015FE28A011201C032989
:100200000714A11605290710A112A01C0A2905141C
:10021000A1140C290510A110201D112985142115E8
:10022000132985102111A01D182905128516080013
:100230008512051208003321A7000408A800023027
:100240002802031C2929031D3129A930270203187C
:10025000312919302E02031D2F2945213029AE0ADC
:100260000800AE01080083129F1483129F183529DD
:100270001E08B00083161E08AF003008AA002F0821
:10028000A9002A0884002908080083120510851097
:10029000051285120710A11021114D29FF3FFF3FC4
:1002A000FF3FFF3FFF3FFF3FFF3FFF3FFF3FFF3F5E
:1002B000FF3FFF3FFF3FFF3FFF3FFF3FFF3FFF3F4E
:1002C000FF3FFF3FFF3FFF3FFF3FFF3FFF3FFF3F3E
:1002D000FF3FFF3FFF3FFF3FFF3FFF3FFF3FFF3F2E
:1007F000FF3FFF3FFF3FFF3FFF3FFF3FFF3F3434DF
:02400E00C421CB
:10420000FF00FF00FF00FF00FF00FF00FF00FF00B6
:10421000FF00FF00FF00FF00FF00FF00FF00FF00A6
:10422000FF00FF00FF00FF00FF00FF00FF00FF0096
:10423000FF00FF00FF00FF00FF00FF00FF00FF0086
:10424000FF00FF00FF00FF00FF00FF00FF00FF0076
:10425000FF00FF00FF00FF00FF00FF00FF00FF0066
:10426000FF00FF00FF00FF00FF00FF00FF00FF0056
:10427000FF00FF00FF00FF00FF00FF00FF00FF0046
:10428000FF00FF00FF00FF00FF00FF00FF00FF0036
:10429000FF00FF00FF00FF00FF00FF00FF00FF0026
:1042A000FF00FF00FF00FF00FF00FF00FF00FF0016
:1042B000FF00FF00FF00FF00FF00FF00FF00FF0006
:1042C000FF00FF00FF00FF00FF00FF00FF00FF00F6
:1042D000FF00FF00FF00FF00FF00FF00FF00FF00E6
:1042E000FF00FF00FF00FF00FF00FF00FF00FF00D6
:1042F000FF00FF00FF00FF00FF00FF00FF00FF00C6
:08400000FF3FFF3FFF3FFF3FC0
:00000001FF
